{
  "contractName": "EthDIDAnchor",
  "abi": [
    {
      "constant": true,
      "inputs": [
        {
          "name": "",
          "type": "uint256"
        }
      ],
      "name": "transactions",
      "outputs": [
        {
          "name": "",
          "type": "bytes32"
        }
      ],
      "payable": false,
      "stateMutability": "view",
      "type": "function",
      "signature": "0x9ace38c2"
    },
    {
      "constant": true,
      "inputs": [],
      "name": "transactionNumber",
      "outputs": [
        {
          "name": "",
          "type": "uint256"
        }
      ],
      "payable": false,
      "stateMutability": "view",
      "type": "function",
      "signature": "0xaac4c5c4"
    },
    {
      "anonymous": false,
      "inputs": [
        {
          "indexed": false,
          "name": "anchorHash",
          "type": "bytes32"
        },
        {
          "indexed": false,
          "name": "ipfsHash",
          "type": "bytes32"
        },
        {
          "indexed": false,
          "name": "transactionNumber",
          "type": "uint256"
        }
      ],
      "name": "AnchorHashCreated",
      "type": "event",
      "signature": "0x91acd521a12ab2dd4081079f9f8449bfb15f8d14371b131a88b8880c9787ae6a"
    },
    {
      "constant": false,
      "inputs": [
        {
          "name": "_anchorHash",
          "type": "bytes32"
        },
        {
          "name": "_ipfsHash",
          "type": "bytes32"
        }
      ],
      "name": "newAnchorHash",
      "outputs": [],
      "payable": false,
      "stateMutability": "nonpayable",
      "type": "function",
      "signature": "0x51cc4767"
    },
    {
      "constant": true,
      "inputs": [
        {
          "name": "_anchorHash",
          "type": "bytes32"
        }
      ],
      "name": "getIPFSHashForAnchor",
      "outputs": [
        {
          "name": "",
          "type": "bytes32"
        }
      ],
      "payable": false,
      "stateMutability": "view",
      "type": "function",
      "signature": "0xdaa36114"
    }
  ],
  "bytecode": "0x6080604052600060025534801561001557600080fd5b50610288806100256000396000f3fe608060405260043610610062576000357c0100000000000000000000000000000000000000000000000000000000900463ffffffff16806351cc4767146100675780639ace38c2146100ac578063aac4c5c4146100fb578063daa3611414610126575b600080fd5b34801561007357600080fd5b506100aa6004803603604081101561008a57600080fd5b810190808035906020019092919080359060200190929190505050610175565b005b3480156100b857600080fd5b506100e5600480360360208110156100cf57600080fd5b8101908080359060200190929190505050610217565b6040518082815260200191505060405180910390f35b34801561010757600080fd5b5061011061023a565b6040518082815260200191505060405180910390f35b34801561013257600080fd5b5061015f6004803603602081101561014957600080fd5b8101908080359060200190929190505050610240565b6040518082815260200191505060405180910390f35b806000808481526020019081526020016000208190555060018290806001815401808255809150509060018203906000526020600020016000909192909190915055506002600081548092919060010191905055507f91acd521a12ab2dd4081079f9f8449bfb15f8d14371b131a88b8880c9787ae6a828260025460405180848152602001838152602001828152602001935050505060405180910390a15050565b60018181548110151561022657fe5b906000526020600020016000915090505481565b60025481565b600080600083815260200190815260200160002054905091905056fea165627a7a723058206a05bcddbc8d35b89f1b3e122b4fadc1e6e8c7c0a546723470f544f93ccb511b0029",
  "source": "pragma solidity 0.5.0;\n\ncontract EthDIDAnchor {\n\n    // Mapping anchor hash to the ipfs hash\n    mapping (bytes32 => bytes32) anchors;\n\n    // Mapping the txnNumber to anchorHash\n    bytes32[] public transactions;\n    uint256 public transactionNumber = 0;\n\n    event AnchorHashCreated(bytes32 anchorHash, bytes32 ipfsHash, uint256 transactionNumber);\n\n    function newAnchorHash(bytes32 _anchorHash, bytes32 _ipfsHash) public {\n        anchors[_anchorHash] = _ipfsHash;\n        transactions.push(_anchorHash);\n        transactionNumber++;\n\n        emit AnchorHashCreated(_anchorHash, _ipfsHash, transactionNumber);\n    }\n\n    function getIPFSHashForAnchor(bytes32 _anchorHash) public view returns(bytes32) {\n        return anchors[_anchorHash];\n    }\n\n}\n",
  "sourcePath": "/Users/orie/Desktop/Transmute/sidetree-mono/packages/sidetree-ethereum/contracts/EthDIDAnchor.sol",
  "compiler": {
    "name": "solc",
    "version": "0.5.0+commit.1d4f565a.Emscripten.clang"
  },
  "schemaVersion": "3.0.1",
  "updatedAt": "2019-02-07T21:11:46.312Z",
  "devdoc": {
    "methods": {}
  },
  "userdoc": {
    "methods": {}
  }
}