{
  "contractName": "EthDIDAnchor",
  "abi": [
    {
      "constant": true,
      "inputs": [
        {
          "name": "",
          "type": "uint256"
        }
      ],
      "name": "transactions",
      "outputs": [
        {
          "name": "",
          "type": "bytes32"
        }
      ],
      "payable": false,
      "stateMutability": "view",
      "type": "function"
    },
    {
      "constant": true,
      "inputs": [],
      "name": "transactionNumber",
      "outputs": [
        {
          "name": "",
          "type": "uint256"
        }
      ],
      "payable": false,
      "stateMutability": "view",
      "type": "function"
    },
    {
      "anonymous": false,
      "inputs": [
        {
          "indexed": false,
          "name": "anchorHash",
          "type": "bytes32"
        },
        {
          "indexed": false,
          "name": "ipfsHash",
          "type": "bytes32"
        },
        {
          "indexed": false,
          "name": "transactionNumber",
          "type": "uint256"
        }
      ],
      "name": "AnchorHashCreated",
      "type": "event"
    },
    {
      "constant": false,
      "inputs": [
        {
          "name": "_anchorHash",
          "type": "bytes32"
        },
        {
          "name": "_ipfsHash",
          "type": "bytes32"
        }
      ],
      "name": "newAnchorHash",
      "outputs": [],
      "payable": false,
      "stateMutability": "nonpayable",
      "type": "function"
    },
    {
      "constant": true,
      "inputs": [
        {
          "name": "_anchorHash",
          "type": "bytes32"
        }
      ],
      "name": "getIPFSHashForAnchor",
      "outputs": [
        {
          "name": "",
          "type": "bytes32"
        }
      ],
      "payable": false,
      "stateMutability": "view",
      "type": "function"
    }
  ],
  "bytecode": "0x6080604052600060025534801561001557600080fd5b506102a4806100256000396000f300608060405260043610610062576000357c0100000000000000000000000000000000000000000000000000000000900463ffffffff16806351cc4767146100675780639ace38c2146100a6578063aac4c5c4146100ef578063daa361141461011a575b600080fd5b34801561007357600080fd5b506100a460048036038101908080356000191690602001909291908035600019169060200190929190505050610167565b005b3480156100b257600080fd5b506100d16004803603810190808035906020019092919050505061022b565b60405180826000191660001916815260200191505060405180910390f35b3480156100fb57600080fd5b5061010461024e565b6040518082815260200191505060405180910390f35b34801561012657600080fd5b506101496004803603810190808035600019169060200190929190505050610254565b60405180826000191660001916815260200191505060405180910390f35b806000808460001916600019168152602001908152602001600020816000191690555060018290806001815401808255809150509060018203906000526020600020016000909192909190915090600019169055506002600081548092919060010191905055507f91acd521a12ab2dd4081079f9f8449bfb15f8d14371b131a88b8880c9787ae6a82826002546040518084600019166000191681526020018360001916600019168152602001828152602001935050505060405180910390a15050565b60018181548110151561023a57fe5b906000526020600020016000915090505481565b60025481565b600080600083600019166000191681526020019081526020016000205490509190505600a165627a7a723058209e8667023a9dde542971dff11085b705ddecb3c9c9281f8f07e0b9dc8d313e5e0029",
  "source": "pragma solidity ^0.4.21;\n\ncontract EthDIDAnchor {\n\n    // Mapping anchor hash to the ipfs hash\n    mapping (bytes32 => bytes32) anchors;\n\n    // Mapping the txnNumber to anchorHash\n    bytes32[] public transactions;\n    uint256 public transactionNumber = 0;\n\n    event AnchorHashCreated(bytes32 anchorHash, bytes32 ipfsHash, uint256 transactionNumber);\n\n    function newAnchorHash(bytes32 _anchorHash, bytes32 _ipfsHash) public {\n        anchors[_anchorHash] = _ipfsHash;\n        transactions.push(_anchorHash);\n        transactionNumber++;\n\n        emit AnchorHashCreated(_anchorHash, _ipfsHash, transactionNumber);\n    }\n\n    function getIPFSHashForAnchor(bytes32 _anchorHash) public view returns(bytes32) {\n        return anchors[_anchorHash];\n    }\n\n}\n",
  "sourcePath": "/Users/emilebaizel/Documents/workspace/git/sidetree-ethereum/contracts/EthDIDAnchor.sol",
  "compiler": {
    "name": "solc",
    "version": "0.4.24+commit.e67f0147.Emscripten.clang"
  },
  "schemaVersion": "2.0.0",
  "updatedAt": "2018-11-05T18:00:16.508Z"
}