{
  "contractName": "SimpleSidetreeAnchor",
  "abi": [
    {
      "constant": true,
      "inputs": [],
      "name": "transactionNumber",
      "outputs": [
        {
          "name": "",
          "type": "uint256"
        }
      ],
      "payable": false,
      "stateMutability": "view",
      "type": "function",
      "signature": "0xaac4c5c4"
    },
    {
      "anonymous": false,
      "inputs": [
        {
          "indexed": false,
          "name": "anchorFileHash",
          "type": "bytes32"
        },
        {
          "indexed": false,
          "name": "transactionNumber",
          "type": "uint256"
        }
      ],
      "name": "Anchor",
      "type": "event",
      "signature": "0x5890dfddefcf0f55584aabc2ffa20af9345469cb722d5df543848b0bf124e8a1"
    },
    {
      "constant": false,
      "inputs": [
        {
          "name": "_anchorHash",
          "type": "bytes32"
        }
      ],
      "name": "anchorHash",
      "outputs": [],
      "payable": false,
      "stateMutability": "nonpayable",
      "type": "function",
      "signature": "0x92677c69"
    }
  ],
  "bytecode": "0x60806040526000805534801561001457600080fd5b50610139806100246000396000f3fe60806040526004361061004c576000357c0100000000000000000000000000000000000000000000000000000000900463ffffffff16806392677c6914610051578063aac4c5c41461008c575b600080fd5b34801561005d57600080fd5b5061008a6004803603602081101561007457600080fd5b81019080803590602001909291905050506100b7565b005b34801561009857600080fd5b506100a1610107565b6040518082815260200191505060405180910390f35b7f5890dfddefcf0f55584aabc2ffa20af9345469cb722d5df543848b0bf124e8a181600054604051808381526020018281526020019250505060405180910390a160016000540160008190555050565b6000548156fea165627a7a72305820eb9fc5c2b3dbf35108cdf428a1856e134294d664e50b96da656701eddafcc5c80029",
  "source": "pragma solidity 0.5.0;\n\ncontract SimpleSidetreeAnchor {\n    uint256 public transactionNumber = 0;\n    event Anchor(bytes32 anchorFileHash, uint256 transactionNumber);\n    function anchorHash(bytes32 _anchorHash) public {\n        emit Anchor(_anchorHash, transactionNumber);\n        transactionNumber = transactionNumber + 1;\n    }\n}\n",
  "sourcePath": "/Users/orie/Desktop/Transmute/sidetree-mono/packages/sidetree-ethereum/contracts/SimpleSidetreeAnchor.sol",
  "compiler": {
    "name": "solc",
    "version": "0.5.0+commit.1d4f565a.Emscripten.clang"
  },
  "schemaVersion": "3.0.1",
  "updatedAt": "2019-02-07T21:11:46.311Z",
  "devdoc": {
    "methods": {}
  },
  "userdoc": {
    "methods": {}
  }
}